{
  "address": "0x0B0Bdc9F11Bc4Ed33dD3Ebf43bcAdAC9d7F1b98D",
  "abi": [
    {
      "anonymous": false,
      "inputs": [
        {
          "indexed": true,
          "internalType": "address",
          "name": "previousOwner",
          "type": "address"
        },
        {
          "indexed": true,
          "internalType": "address",
          "name": "newOwner",
          "type": "address"
        }
      ],
      "name": "OwnershipTransferred",
      "type": "event"
    },
    {
      "anonymous": false,
      "inputs": [
        {
          "indexed": true,
          "internalType": "address",
          "name": "yieldSource",
          "type": "address"
        },
        {
          "indexed": true,
          "internalType": "address",
          "name": "owner",
          "type": "address"
        }
      ],
      "name": "SwappableYieldSourceInitialized",
      "type": "event"
    },
    {
      "anonymous": false,
      "inputs": [
        {
          "indexed": true,
          "internalType": "address",
          "name": "oldYieldSource",
          "type": "address"
        },
        {
          "indexed": true,
          "internalType": "address",
          "name": "newYieldSource",
          "type": "address"
        }
      ],
      "name": "SwappedYieldSource",
      "type": "event"
    },
    {
      "inputs": [
        {
          "internalType": "address",
          "name": "addr",
          "type": "address"
        }
      ],
      "name": "balanceOfToken",
      "outputs": [
        {
          "internalType": "uint256",
          "name": "",
          "type": "uint256"
        }
      ],
      "stateMutability": "nonpayable",
      "type": "function"
    },
    {
      "inputs": [],
      "name": "depositToken",
      "outputs": [
        {
          "internalType": "address",
          "name": "",
          "type": "address"
        }
      ],
      "stateMutability": "view",
      "type": "function"
    },
    {
      "inputs": [
        {
          "internalType": "contract IYieldSource",
          "name": "_yieldSource",
          "type": "address"
        },
        {
          "internalType": "address",
          "name": "_owner",
          "type": "address"
        }
      ],
      "name": "initialize",
      "outputs": [
        {
          "internalType": "bool",
          "name": "",
          "type": "bool"
        }
      ],
      "stateMutability": "nonpayable",
      "type": "function"
    },
    {
      "inputs": [],
      "name": "owner",
      "outputs": [
        {
          "internalType": "address",
          "name": "",
          "type": "address"
        }
      ],
      "stateMutability": "view",
      "type": "function"
    },
    {
      "inputs": [
        {
          "internalType": "uint256",
          "name": "amount",
          "type": "uint256"
        }
      ],
      "name": "redeemToken",
      "outputs": [
        {
          "internalType": "uint256",
          "name": "",
          "type": "uint256"
        }
      ],
      "stateMutability": "nonpayable",
      "type": "function"
    },
    {
      "inputs": [],
      "name": "renounceOwnership",
      "outputs": [],
      "stateMutability": "nonpayable",
      "type": "function"
    },
    {
      "inputs": [
        {
          "internalType": "uint256",
          "name": "amount",
          "type": "uint256"
        },
        {
          "internalType": "address",
          "name": "to",
          "type": "address"
        }
      ],
      "name": "supplyTokenTo",
      "outputs": [],
      "stateMutability": "nonpayable",
      "type": "function"
    },
    {
      "inputs": [
        {
          "internalType": "address",
          "name": "newYieldSource",
          "type": "address"
        }
      ],
      "name": "swapYieldSource",
      "outputs": [
        {
          "internalType": "bool",
          "name": "",
          "type": "bool"
        }
      ],
      "stateMutability": "nonpayable",
      "type": "function"
    },
    {
      "inputs": [
        {
          "internalType": "address",
          "name": "newOwner",
          "type": "address"
        }
      ],
      "name": "transferOwnership",
      "outputs": [],
      "stateMutability": "nonpayable",
      "type": "function"
    },
    {
      "inputs": [],
      "name": "yieldSource",
      "outputs": [
        {
          "internalType": "contract IYieldSource",
          "name": "",
          "type": "address"
        }
      ],
      "stateMutability": "view",
      "type": "function"
    }
  ],
  "transactionHash": "0x6488ac4614f03e63077ddf00f1e85fcccf782d7115a9c3ee0c6d71300b765b42",
  "args": [],
  "solcInputHash": "61aa8ea91286d2a22037ed193c97df3c",
  "bytecode": "0x608060405234801561001057600080fd5b506112b5806100206000396000f3fe608060405234801561001057600080fd5b506004361061009e5760003560e01c80638da5cb5b116100665780638da5cb5b14610170578063b2470e5c14610194578063b99152d01461019c578063c89039c5146101c2578063f2fde38b146101ca5761009e565b8063013054c2146100a3578063485cc955146100d2578063715018a61461011457806375bed0be1461011e57806387a6eeef14610144575b600080fd5b6100c0600480360360208110156100b957600080fd5b50356101f0565b60408051918252519081900360200190f35b610100600480360360408110156100e857600080fd5b506001600160a01b0381358116916020013516610270565b604080519115158252519081900360200190f35b61011c610485565b005b6101006004803603602081101561013457600080fd5b50356001600160a01b0316610543565b61011c6004803603604081101561015a57600080fd5b50803590602001356001600160a01b03166106c6565b610178610737565b604080516001600160a01b039092168252519081900360200190f35b610178610746565b6100c0600480360360208110156101b257600080fd5b50356001600160a01b0316610755565b6101786107a7565b61011c600480360360208110156101e057600080fd5b50356001600160a01b031661081d565b6065546040805162982a6160e11b81526004810184905290516000926001600160a01b03169163013054c291602480830192602092919082900301818787803b15801561023c57600080fd5b505af1158015610250573d6000803e3d6000fd5b505050506040513d602081101561026657600080fd5b505190505b919050565b60008054610100900460ff168061028a575061028a610932565b80610298575060005460ff16155b6102d35760405162461bcd60e51b815260040180806020018281038252602e8152602001806111cb602e913960400191505060405180910390fd5b600054610100900460ff161580156102fe576000805460ff1961ff0019909116610100171660011790555b606580546001600160a01b0319166001600160a01b0386169081179091556040805163c89039c560e01b60208083019190915282518083038201815291830192839052815160009493918291908401908083835b602083106103715780518252601f199092019160209182019101610352565b6001836020036101000a038019825116818451168082178552505050505050905001915050600060405180830381855afa9150503d80600081146103d1576040519150601f19603f3d011682016040523d82523d6000602084013e6103d6565b606091505b50509050806104165760405162461bcd60e51b81526004018080602001828103825260298152602001806111596029913960400191505060405180910390fd5b61041e610943565b6104278461081d565b836001600160a01b0316856001600160a01b03167f9dfd54995b6048d5089d7fc18cb2c6516de43832f6e702c7f5d552684a034bef60405160405180910390a36001925050801561047e576000805461ff00191690555b5092915050565b61048d6109f5565b6001600160a01b031661049e610737565b6001600160a01b0316146104f9576040805162461bcd60e51b815260206004820181905260248201527f4f776e61626c653a2063616c6c6572206973206e6f7420746865206f776e6572604482015290519081900360640190fd5b6033546040516000916001600160a01b0316907f8be0079c531659141344cd1fd0a4f28419497f9722a3daafe3b4186f6b6457e0908390a3603380546001600160a01b0319169055565b600061054d6109f5565b6001600160a01b031661055e610737565b6001600160a01b0316146105b9576040805162461bcd60e51b815260206004820181905260248201527f4f776e61626c653a2063616c6c6572206973206e6f7420746865206f776e6572604482015290519081900360640190fd5b60655460408051630b99152d60e41b815230600482015290516000926001600160a01b03169163b99152d091602480830192602092919082900301818787803b15801561060557600080fd5b505af1158015610619573d6000803e3d6000fd5b505050506040513d602081101561062f57600080fd5b5051905061063c816109f9565b506106478184610ab2565b156106835760405162461bcd60e51b81526004018080602001828103825260238152602001806111826023913960400191505060405180910390fd5b6065546040516001600160a01b038086169216907f43202f183369279f11696950d98fef59b0d8aac452bc981523330112621b63c390600090a350600192915050565b606554604080516387a6eeef60e01b8152600481018590526001600160a01b038481166024830152915191909216916387a6eeef91604480830192600092919082900301818387803b15801561071b57600080fd5b505af115801561072f573d6000803e3d6000fd5b505050505050565b6033546001600160a01b031690565b6065546001600160a01b031681565b60655460408051630b99152d60e41b81526001600160a01b0384811660048301529151600093929092169163b99152d09160248082019260209290919082900301818787803b15801561023c57600080fd5b6065546040805163c89039c560e01b815290516000926001600160a01b03169163c89039c5916004808301926020929190829003018186803b1580156107ec57600080fd5b505afa158015610800573d6000803e3d6000fd5b505050506040513d602081101561081657600080fd5b5051905090565b6108256109f5565b6001600160a01b0316610836610737565b6001600160a01b031614610891576040805162461bcd60e51b815260206004820181905260248201527f4f776e61626c653a2063616c6c6572206973206e6f7420746865206f776e6572604482015290519081900360640190fd5b6001600160a01b0381166108d65760405162461bcd60e51b81526004018080602001828103825260268152602001806111336026913960400191505060405180910390fd5b6033546040516001600160a01b038084169216907f8be0079c531659141344cd1fd0a4f28419497f9722a3daafe3b4186f6b6457e090600090a3603380546001600160a01b0319166001600160a01b0392909216919091179055565b600061093d30610bb2565b15905090565b600054610100900460ff168061095c575061095c610932565b8061096a575060005460ff16155b6109a55760405162461bcd60e51b815260040180806020018281038252602e8152602001806111cb602e913960400191505060405180910390fd5b600054610100900460ff161580156109d0576000805460ff1961ff0019909116610100171660011790555b6109d8610bb8565b6109e0610c58565b80156109f2576000805461ff00191690555b50565b3390565b6065546040805162982a6160e11b815260048101849052905160009284926001600160a01b039091169163013054c29160248082019260209290919082900301818887803b158015610a4a57600080fd5b505af1158015610a5e573d6000803e3d6000fd5b505050506040513d6020811015610a7457600080fd5b50511461026b5760405162461bcd60e51b81526004018080602001828103825260278152602001806111f96027913960400191505060405180910390fd5b6000610b438284606560009054906101000a90046001600160a01b03166001600160a01b031663c89039c56040518163ffffffff1660e01b815260040160206040518083038186803b158015610b0757600080fd5b505afa158015610b1b573d6000803e3d6000fd5b505050506040513d6020811015610b3157600080fd5b50516001600160a01b03169190610d51565b604080516387a6eeef60e01b81526004810185905230602482015290516001600160a01b038416916387a6eeef91604480830192600092919082900301818387803b158015610b9157600080fd5b505af1158015610ba5573d6000803e3d6000fd5b5060009695505050505050565b3b151590565b600054610100900460ff1680610bd15750610bd1610932565b80610bdf575060005460ff16155b610c1a5760405162461bcd60e51b815260040180806020018281038252602e8152602001806111cb602e913960400191505060405180910390fd5b600054610100900460ff161580156109e0576000805460ff1961ff00199091166101001716600117905580156109f2576000805461ff001916905550565b600054610100900460ff1680610c715750610c71610932565b80610c7f575060005460ff16155b610cba5760405162461bcd60e51b815260040180806020018281038252602e8152602001806111cb602e913960400191505060405180910390fd5b600054610100900460ff16158015610ce5576000805460ff1961ff0019909116610100171660011790555b6000610cef6109f5565b603380546001600160a01b0319166001600160a01b038316908117909155604051919250906000907f8be0079c531659141344cd1fd0a4f28419497f9722a3daafe3b4186f6b6457e0908290a35080156109f2576000805461ff001916905550565b801580610dd7575060408051636eb1769f60e11b81523060048201526001600160a01b03848116602483015291519185169163dd62ed3e91604480820192602092909190829003018186803b158015610da957600080fd5b505afa158015610dbd573d6000803e3d6000fd5b505050506040513d6020811015610dd357600080fd5b5051155b610e125760405162461bcd60e51b815260040180806020018281038252603681526020018061124a6036913960400191505060405180910390fd5b604080516001600160a01b038416602482015260448082018490528251808303909101815260649091019091526020810180516001600160e01b031663095ea7b360e01b179052610e64908490610e69565b505050565b6000610ebe826040518060400160405280602081526020017f5361666545524332303a206c6f772d6c6576656c2063616c6c206661696c6564815250856001600160a01b0316610f1a9092919063ffffffff16565b805190915015610e6457808060200190516020811015610edd57600080fd5b5051610e645760405162461bcd60e51b815260040180806020018281038252602a815260200180611220602a913960400191505060405180910390fd5b6060610f298484600085610f33565b90505b9392505050565b606082471015610f745760405162461bcd60e51b81526004018080602001828103825260268152602001806111a56026913960400191505060405180910390fd5b610f7d85610bb2565b610fce576040805162461bcd60e51b815260206004820152601d60248201527f416464726573733a2063616c6c20746f206e6f6e2d636f6e7472616374000000604482015290519081900360640190fd5b600080866001600160a01b031685876040518082805190602001908083835b6020831061100c5780518252601f199092019160209182019101610fed565b6001836020036101000a03801982511681845116808217855250505050505090500191505060006040518083038185875af1925050503d806000811461106e576040519150601f19603f3d011682016040523d82523d6000602084013e611073565b606091505b509150915061108382828661108e565b979650505050505050565b6060831561109d575081610f2c565b8251156110ad5782518084602001fd5b8160405162461bcd60e51b81526004018080602001828103825283818151815260200191508051906020019080838360005b838110156110f75781810151838201526020016110df565b50505050905090810190601f1680156111245780820380516001836020036101000a031916815260200191505b509250505060405180910390fdfe4f776e61626c653a206e6577206f776e657220697320746865207a65726f2061646472657373537761707061626c655969656c64536f757263652f696e76616c69642d7969656c642d736f75726365537761707061626c655969656c64536f757263652f6661696c65642d746f2d73776170416464726573733a20696e73756666696369656e742062616c616e636520666f722063616c6c496e697469616c697a61626c653a20636f6e747261637420697320616c726561647920696e697469616c697a6564537761707061626c655969656c64536f757263652f6661696c65642d746f2d77697468647261775361666545524332303a204552433230206f7065726174696f6e20646964206e6f7420737563636565645361666545524332303a20617070726f76652066726f6d206e6f6e2d7a65726f20746f206e6f6e2d7a65726f20616c6c6f77616e6365a2646970667358221220f1d1b11b733c39100708a329e47778be0824bf91368b8808b42182fb4836998964736f6c63430007060033",
  "devdoc": {
    "details": "This contract adheres to the PoolTogether yield source interfaceThis contract inherits OwnableUpgradable",
    "kind": "dev",
    "methods": {
      "balanceOfToken(address)": {
        "returns": {
          "_0": "The underlying balance of asset tokens"
        }
      },
      "depositToken()": {
        "returns": {
          "_0": "The ERC20 asset token interface"
        }
      },
      "initialize(address,address)": {
        "params": {
          "_owner": "Swappable yield source owner",
          "_yieldSource": "Address of yield source used to initialize this swappable yield source"
        }
      },
      "owner()": {
        "details": "Returns the address of the current owner."
      },
      "redeemToken(uint256)": {
        "params": {
          "amount": "The amount of `token()` to withdraw. Denominated in `token()` as above."
        },
        "returns": {
          "_0": "The actual amount of tokens that were redeemed."
        }
      },
      "renounceOwnership()": {
        "details": "Leaves the contract without owner. It will not be possible to call `onlyOwner` functions anymore. Can only be called by the current owner. NOTE: Renouncing ownership will leave the contract without an owner, thereby removing any functionality that is only available to the owner."
      },
      "supplyTokenTo(uint256,address)": {
        "params": {
          "amount": "The amount of `token()` to be supplied",
          "to": "The user whose balance will receive the tokens"
        }
      },
      "swapYieldSource(address)": {
        "returns": {
          "_0": "True if operation is successful"
        }
      },
      "transferOwnership(address)": {
        "details": "Transfers ownership of the contract to a new account (`newOwner`). Can only be called by the current owner."
      }
    },
    "title": "Swappable yield source contract to allow a PoolTogether prize pool to swap between different yield sources",
    "version": 1
  },
  "userdoc": {
    "events": {
      "SwappableYieldSourceInitialized(address,address)": {
        "notice": "Emitted when the swappable yield source is initialized"
      },
      "SwappedYieldSource(address,address)": {
        "notice": "Emitted when yield source has been successfuly swapped"
      }
    },
    "kind": "user",
    "methods": {
      "balanceOfToken(address)": {
        "notice": "Returns the total balance (in asset tokens). This includes the deposits and interest."
      },
      "depositToken()": {
        "notice": "Returns the ERC20 asset token used for deposits"
      },
      "initialize(address,address)": {
        "notice": "Initializes the swappable yield source with the yieldSource address provided"
      },
      "redeemToken(uint256)": {
        "notice": "Redeems tokens from the current yield source."
      },
      "supplyTokenTo(uint256,address)": {
        "notice": "Supplies tokens to the current yield source. Allows assets to be supplied on other user's behalf using the `to` param."
      },
      "swapYieldSource(address)": {
        "notice": "Swap yieldSource for newYieldSource"
      },
      "yieldSource()": {
        "notice": "Yield source interface"
      }
    },
    "notice": "Swappable yield source for a PoolTogether prize pool that generates yield by depositing into the specified yield source",
    "version": 1
  },
  "storageLayout": {
    "storage": [
      {
        "astId": 492,
        "contract": "contracts/SwappableYieldSource.sol:SwappableYieldSource",
        "label": "_initialized",
        "offset": 0,
        "slot": "0",
        "type": "t_bool"
      },
      {
        "astId": 495,
        "contract": "contracts/SwappableYieldSource.sol:SwappableYieldSource",
        "label": "_initializing",
        "offset": 1,
        "slot": "0",
        "type": "t_bool"
      },
      {
        "astId": 1130,
        "contract": "contracts/SwappableYieldSource.sol:SwappableYieldSource",
        "label": "__gap",
        "offset": 0,
        "slot": "1",
        "type": "t_array(t_uint256)50_storage"
      },
      {
        "astId": 10,
        "contract": "contracts/SwappableYieldSource.sol:SwappableYieldSource",
        "label": "_owner",
        "offset": 0,
        "slot": "51",
        "type": "t_address"
      },
      {
        "astId": 129,
        "contract": "contracts/SwappableYieldSource.sol:SwappableYieldSource",
        "label": "__gap",
        "offset": 0,
        "slot": "52",
        "type": "t_array(t_uint256)49_storage"
      },
      {
        "astId": 1199,
        "contract": "contracts/SwappableYieldSource.sol:SwappableYieldSource",
        "label": "yieldSource",
        "offset": 0,
        "slot": "101",
        "type": "t_contract(IYieldSource)1165"
      }
    ],
    "types": {
      "t_address": {
        "encoding": "inplace",
        "label": "address",
        "numberOfBytes": "20"
      },
      "t_array(t_uint256)49_storage": {
        "base": "t_uint256",
        "encoding": "inplace",
        "label": "uint256[49]",
        "numberOfBytes": "1568"
      },
      "t_array(t_uint256)50_storage": {
        "base": "t_uint256",
        "encoding": "inplace",
        "label": "uint256[50]",
        "numberOfBytes": "1600"
      },
      "t_bool": {
        "encoding": "inplace",
        "label": "bool",
        "numberOfBytes": "1"
      },
      "t_contract(IYieldSource)1165": {
        "encoding": "inplace",
        "label": "contract IYieldSource",
        "numberOfBytes": "20"
      },
      "t_uint256": {
        "encoding": "inplace",
        "label": "uint256",
        "numberOfBytes": "32"
      }
    }
  }
}